:100145007FD07E07EF1FAC0670011E4C70F60000D5
:020155000000A8
:010157002285
:10015800D2B100000000D2B000000000C2B100001F
:0301680000002272
:10016B00C2B100000000D2B000000000D2B100000C
:03017B000000225F
:05010900AF041200E844
:10010E00D2B00000000030B10BE50AC394C8500411
:0A011E00050A80F2C2B000000000E4
:0101280022B4
:0D017E00D2B100000000D2B000000000224D
:10012900E4FEFFD2B0EE25E0FEA2B1E4334206C2FE
:0B013900B0000000000FBF08EAAF0696
:010144002298
:1000E800E4FEC2B000000000EF3392B1000000004F
:1000F800D2B0EF25E0FF0EBE08E8C2B00000000055
:0101080022D4
:0200C300AC0788
:1000C5007FA0EB540725E02FFF1201581200E8121C
:1000D500010E120109AF051200E812010E12016BA3
:0300E500020145D0
:02005F00AC07EC
:100061007BA0ED540725E02BFB120158FF1200E89D
:1000710012010E120109ED540725E02BFB0B1201B1
:1000810058AF031200E812010E120129000000000E
:0300910012016BEE
:010094002249
:10009500E4F50BF50C12017EF50BF50CAF0CC00762
:1000A500EF2402FDE50BFBD0071200C3050CE50CA0
:0D00B5007002050BC39464E50B940040DF5E
:0100C200221B
:10000300E4F508F509D2B2D2B212017EF508F5097A
:10001300AF09C007EF2402FDE508FBD0071200C3B8
:100023000509E50970020508C39464E508940040D6
:10003300DFC2B2750800750965AF09C007EF240276
:10004300FDE508FBD0071200C30509E509700205A9
:0C00530008C394C8E508940040DF80FE5C
:0300000002018B6F
:0C018B00787FE4F6D8FD75810C020003BB
:00000001FF
