:10011100313233000000000000000000002F000019
:1001210000000700070000147F147F1400242A7FB9
:100131002A12006264081323003649552250000038
:100141000503000000001C224100000041221C00A8
:060151000014083E081432
:100216008F118D12C2B312030E7F78120260120282
:10022600A6AF121202601202A6AF111202601202EB
:07023600A6120321D2B3223E
:05034D007D40020216D4
:05035200E4FD020216AB
:100281008F10ED24B0FF120352E51054F0C4540F47
:100291004410FF120352E510540F4401FF020352B0
:02018D008F08D9
:10018F00E4F509E50924B0FF1203527F011203526F
:10019F007F10120352E4F50AAF0812034D050AE56A
:0F01AF000AC3948040F20509E509C3940840D4BF
:0101BE00221E
:05035700E4FF02018D2E
:100003007FF47E011202C17FAE120352E4FF12039A
:10001300527F101203527F401203527F8112035208
:100023007FCF1203527FA11203527FC81203527F64
:10003300A61203527FA81203527F3F1203527FD3AB
:10004300120352E4FF1203527FD51203527F801230
:1000530003527FD91203527FF11203527FDA120344
:10006300527F121203527FDB1203527F401203525C
:100073007F201203527F021203527F8D1203527F9D
:10008300141203527FA41203527FA61203527FAFAE
:0E009300120352E4FF12018DE4FDFF02028110
:0A00A1008F088D098B0A8A0B890C69
:1000AB00E4F50DF50EF50FAB0AAA0BA90C850F8223
:1000BB007583001201BF604D24E0F50DE508D39464
:1000CB007E4005E4F5080509AD09AF08120281E48D
:1000DB00F50EE50D75F006A42415F582E43401F553
:1000EB0083E582250EF582E43583F583E493FF12D5
:1000FB00034D050EE50EC3940640D774062508F58F
:05010B0008050F80A2B1
:0101100022CC
:10023D001200031203577BFF7A017911E4FDFF12BF
:10024D0000A1120334E4FDFF1201577B01E4FDFF11
:03025D000201ECAF
:1002C100D3EF9400EE940040147D6E7C00ED1D7020
:0D02D100011CED4C70F7EF1F70E61E80E37E
:0102DE0022FD
:1002FB007FD07E07EF1FAC0670011E4C70F600001E
:02030B000000F0
:01030D0022CD
:10030E00D2B100000000D2B000000000C2B1000067
:03031E00000022BA
:10032100C2B100000000D2B000000000D2B1000054
:03033100000022A7
:0502A100AF0412026031
:1002A600D2B00000000030B10BE513C394C850046F
:0A02B600051380F2C2B00000000042
:0102C000221B
:0D033400D2B100000000D2B0000000002295
:1002DF00E4FEFFD2B0EE25E0FEA2B1E4334206C247
:0B02EF00B0000000000FBF08EAAF06DF
:0102FA0022E1
:10026000E4FEC2B000000000EF3392B100000000D5
:10027000D2B0EF25E0FF0EBE08E8C2B000000000DB
:01028000225B
:0201EC00AC075E
:1001EE007FA0EB540725E02FFFC2B212030E1202BE
:1001FE00601202A61202A1AF051202601202A6122E
:07020E0003211202FBD2B232
:0102150022C6
:02015700AC07F3
:100159007BA0ED540725E02BFB12030EFF12026072
:100169001202A61202A1ED540725E02BFB0B120384
:100179000EAF031202601202A61202DF0000000095
:030189001203213D
:01018C002250
:03000000020341B7
:0C034100787FE4F6D8FD75811302023DC0
:1001BF00BB010CE58229F582E5833AF583E02250F5
:1001CF0006E92582F8E622BBFE06E92582F8E2223F
:0D01DF00E58229F582E5833AF583E4932259
:00000001FF
